{
  "contractName": "ItemManager",
  "abi": [
    {
      "anonymous": false,
      "inputs": [
        {
          "indexed": false,
          "internalType": "uint256",
          "name": "_itemIndex",
          "type": "uint256"
        },
        {
          "indexed": false,
          "internalType": "uint256",
          "name": "_step",
          "type": "uint256"
        }
      ],
      "name": "SupplyChainStep",
      "type": "event"
    },
    {
      "inputs": [
        {
          "internalType": "uint256",
          "name": "",
          "type": "uint256"
        }
      ],
      "name": "items",
      "outputs": [
        {
          "internalType": "enum ItemManager.SupplyChainSteps",
          "name": "_step",
          "type": "uint8"
        },
        {
          "internalType": "string",
          "name": "_identifier",
          "type": "string"
        },
        {
          "internalType": "uint256",
          "name": "_priceInWei",
          "type": "uint256"
        }
      ],
      "stateMutability": "view",
      "type": "function",
      "constant": true
    },
    {
      "inputs": [
        {
          "internalType": "string",
          "name": "_identifier",
          "type": "string"
        },
        {
          "internalType": "uint256",
          "name": "_priceInWei",
          "type": "uint256"
        }
      ],
      "name": "createItem",
      "outputs": [],
      "stateMutability": "nonpayable",
      "type": "function"
    },
    {
      "inputs": [
        {
          "internalType": "uint256",
          "name": "_index",
          "type": "uint256"
        }
      ],
      "name": "triggerPayment",
      "outputs": [],
      "stateMutability": "payable",
      "type": "function",
      "payable": true
    },
    {
      "inputs": [
        {
          "internalType": "uint256",
          "name": "_index",
          "type": "uint256"
        }
      ],
      "name": "triggerDelivery",
      "outputs": [],
      "stateMutability": "nonpayable",
      "type": "function"
    }
  ],
  "bytecode": "0x608060405234801561001057600080fd5b5061081c806100206000396000f3fe60806040526004361061003f5760003560e01c8063800fb83f146100445780638c55174214610072578063bfb231d214610144578063cd31831e14610214575b600080fd5b6100706004803603602081101561005a57600080fd5b810190808035906020019092919050505061024f565b005b34801561007e57600080fd5b506101426004803603604081101561009557600080fd5b81019080803590602001906401000000008111156100b257600080fd5b8201836020820111156100c457600080fd5b803590602001918460018302840111640100000000831117156100e657600080fd5b91908080601f016020809104026020016040519081016040528093929190818152602001838380828437600081840152601f19601f82011690508083019250505050505050919291929080359060200190929190505050610411565b005b34801561015057600080fd5b5061017d6004803603602081101561016757600080fd5b8101908080359060200190929190505050610518565b6040518084600281111561018d57fe5b60ff16815260200180602001838152602001828103825284818151815260200191508051906020019080838360005b838110156101d75780820151818401526020810190506101bc565b50505050905090810190601f1680156102045780820380516001836020036101000a031916815260200191505b5094505050505060405180910390f35b34801561022057600080fd5b5061024d6004803603602081101561023757600080fd5b81019080803590602001909291905050506105e7565b005b346000808381526020019081526020016000206002015411156102da576040517f08c379a000000000000000000000000000000000000000000000000000000000815260040180806020018281038252600e8152602001807f4e6f742066756c6c79207061696400000000000000000000000000000000000081525060200191505060405180910390fd5b600060028111156102e757fe5b60008083815260200190815260200160002060000160009054906101000a900460ff16600281111561031557fe5b1461036b576040517f08c379a00000000000000000000000000000000000000000000000000000000081526004018080602001828103825260238152602001806107c46023913960400191505060405180910390fd5b600160008083815260200190815260200160002060000160006101000a81548160ff0219169083600281111561039d57fe5b02179055507f8c198761ba3d324d155cbaf96f0ac38a531c085089e49106d95352535a1110c28160008084815260200190815260200160002060000160009054906101000a900460ff1660028111156103f257fe5b604051808381526020018281526020019250505060405180910390a150565b806000806001548152602001908152602001600020600201819055506000806000600154815260200190815260200160002060000160006101000a81548160ff0219169083600281111561046157fe5b0217905550816000806001548152602001908152602001600020600101908051906020019061049192919061071e565b507f8c198761ba3d324d155cbaf96f0ac38a531c085089e49106d95352535a1110c2600154600080600154815260200190815260200160002060000160009054906101000a900460ff1660028111156104e657fe5b604051808381526020018281526020019250505060405180910390a16001600081548092919060010191905055505050565b60006020528060005260406000206000915090508060000160009054906101000a900460ff1690806001018054600181600116156101000203166002900480601f0160208091040260200160405190810160405280929190818152602001828054600181600116156101000203166002900480156105d75780601f106105ac576101008083540402835291602001916105d7565b820191906000526020600020905b8154815290600101906020018083116105ba57829003601f168201915b5050505050908060020154905083565b600160028111156105f457fe5b60008083815260200190815260200160002060000160009054906101000a900460ff16600281111561062257fe5b14610678576040517f08c379a00000000000000000000000000000000000000000000000000000000081526004018080602001828103825260238152602001806107c46023913960400191505060405180910390fd5b600260008083815260200190815260200160002060000160006101000a81548160ff021916908360028111156106aa57fe5b02179055507f8c198761ba3d324d155cbaf96f0ac38a531c085089e49106d95352535a1110c28160008084815260200190815260200160002060000160009054906101000a900460ff1660028111156106ff57fe5b604051808381526020018281526020019250505060405180910390a150565b828054600181600116156101000203166002900490600052602060002090601f016020900481019282601f1061075f57805160ff191683800117855561078d565b8280016001018555821561078d579182015b8281111561078c578251825591602001919060010190610771565b5b50905061079a919061079e565b5090565b6107c091905b808211156107bc5760008160009055506001016107a4565b5090565b9056fe4974656d206973206675727468657220696e2074686520737570706c7920636861696ea26469706673582212203de404f1ee396accd67c9ece0e22f62e0a04dff16393327ab9418fe8a5ea227164736f6c63430006010033",
  "source": "pragma solidity ^0.6.0;\n\ncontract ItemManager{\n\n    enum SupplyChainSteps{Created, Paid, Delivered}\n\n    struct S_Item {\n        ItemManager.SupplyChainSteps _step;\n        string _identifier;\n        uint _priceInWei;\n    }\n    mapping(uint => S_Item) public items;\n    uint index;\n\n    event SupplyChainStep(uint _itemIndex, uint _step);\n\n    function createItem(string memory _identifier, uint _priceInWei) public {\n\n        items[index]._priceInWei = _priceInWei;\n        items[index]._step = SupplyChainSteps.Created;\n        items[index]._identifier = _identifier;\n        emit SupplyChainStep(index, uint(items[index]._step));\n        index++;\n    }\n\n    function triggerPayment(uint _index) public payable {\n        require(items[_index]._priceInWei <= msg.value, \"Not fully paid\");\n        require(items[_index]._step == SupplyChainSteps.Created, \"Item is further in the supply chain\");\n        items[_index]._step = SupplyChainSteps.Paid;\n        emit SupplyChainStep(_index, uint(items[_index]._step));\n    }\n\n    function triggerDelivery(uint _index) public {\n        require(items[_index]._step == SupplyChainSteps.Paid, \"Item is further in the supply chain\");\n        items[_index]._step = SupplyChainSteps.Delivered;\n        emit SupplyChainStep(_index, uint(items[_index]._step));\n    }\n}\n",
  "sourcePath": "/Users/mychicha/Documents/Code/event-trigger-solidity/contracts/ItemManager.sol",
  "compiler": {
    "name": "solc",
    "version": "0.6.1+commit.e6f7d5a4.Emscripten.clang"
  },
  "schemaVersion": "3.4.1",
  "updatedAt": "2021-06-05T17:47:51.418Z",
  "networkType": "ethereum",
  "devdoc": {
    "methods": {}
  },
  "userdoc": {
    "methods": {}
  }
}